S00E00007461736B31312E7372656301
S11300000C9434000C9449000C9449000C9449005D
S11300100C9449000C9449000C9449000C94490038
S11300200C9449000C9449000C9449000C94490028
S11300300C9449000C9449000C9449000C94490018
S11300400C9449000C9449000C9449000C94490008
S11300500C9449000C9449000C9449000C944900F8
S11300600C9449000C94490011241FBECFEFD8E032
S1130070DEBFCDBF11E0A0E0B1E0E2E4F1E002C0F8
S113008005900D92A230B107D9F70E9490000C940C
S11300909F000C940000EAE7F0E080818064808394
S11300A0808184FFFDCF809178002091790090E0D9
S11300B0922B853521E0920718F45F9A5E985D983B
S11300C09C01255531402435314018F45E9A5F98DF
S11300D05D98893A924018F05D9A5E985F98089509
S11300E08AB1806E8AB95D985E985F98ECE7F0E01B
S11300F080818064808380818F7780838081846025
S113010080838081816080838081877F80838081F8
S11301108D7F8083EAE7F0E08081806880830895A2
S11301200E94700080910001882331F00E944B00EE
S1130130809100018111FACF80E090E00895F89455
S1050140FFCFEB
S10501420100B6
S9030000FC
