S00E00007461736B31302E7372656302
S11300000C9434000C9449000C9449000C9449005D
S11300100C9449000C9449000C9449000C94490038
S11300200C9449000C9449000C9449000C94490028
S11300300C9449000C9449000C9449000C94490018
S11300400C9449000C9449000C9449000C94490008
S11300500C9449000C9449000C9449000C944900F8
S11300600C9449000C94490011241FBECFEFD8E032
S1130070DEBFCDBF11E0A0E0B1E0E6ECF0E002C0ED
S113008005900D92A230B107D9F70E9458000C9444
S113009061000C940000569A84B5806C84BD84B5CC
S11300A0816084BD85B5816085BD88EC87BD089578
S11300B00E944B00809100018111FECF80E090E00E
S10900C00895F894FFCF3F
S10500C6010033
S9030000FC
