S00D00007461736B392E737265632B
S11300000C9434000C9449000C9449000C9449005D
S11300100C9449000C9449000C9449000C94490038
S11300200C9449000C9449000C9449000C94490028
S11300300C9449000C9449000C945D000C94490004
S11300400C944B000C9449000C9449000C94490006
S11300500C9449000C9449000C9449000C944900F8
S11300600C9449000C94490011241FBECFEFD8E032
S1130070DEBFCDBF11E0A0E0B1E0E2E1F1E002C0FB
S113008005900D92A230B107D9F70E947E000C941E
S113009087000C9400001F920F920FB60F92112448
S11300A08F939F939BB182E089278BB99F918F9106
S11300B00F900FBE0F901F9018951F920F920FB6BE
S11300C00F9211248F939F939BB182E089278BB960
S11300D09F918F910F900FBE0F901F901895519A7A
S11300E08BB182708BB981E085BDEEE6F0E0808152
S11300F08360808382E387BD789408950E946F00B3
S1130100809100018111FECF80E090E00895F89481
S1050110FFCF1B
S10501120100E6
S9030000FC
