:100000000C9434000C9449000C9449000C94490061
:100010000C9449000C9449000C9449000C9449003C
:100020000C9449000C9449000C9449000C9449002C
:100030000C9449000C9449000C9449000C9449001C
:100040000C9449000C9449000C9449000C9449000C
:100050000C9449000C9449000C9449000C944900FC
:100060000C9449000C94490011241FBECFEFD8E036
:10007000DEBFCDBF11E0A0E0B1E0E2EFF0E002C0F2
:1000800005900D92A230B107D9F70E946E000C9432
:1000900077000C940000239A259A269A8CB58F77C6
:1000A0008CBD8CB580648CBD8CB58F7D8CBD8CB5C2
:1000B00080618CBD8CB588608CBD8CB58B7F8CBD10
:1000C0008CB58D7F8CBD8CB58E7F8CBD2E9885E0D8
:1000D0008EBD0DB407FEFDCF8EB508950E944B0076
:1000E000809100018111FECF80E090E00895F894A6
:0200F000FFCF40
:0200F20001000B
:00000001FF
